:1000000008308A0000280000070057103D10251A0C
:100010002E186610A03300000C002010C3204E10D4
:10002000C4244527202A55003F308400831300084C
:10003000031928280130F800F701F70B1D28F80BE9
:100040001C284A30F700F70B23282628800B1A2893
:10005000080046182D2808102E28081483160810AA
:100060008312C618352888103628881483168810FD
:10007000831246193D2888113E2888158316881159
:100080008312C61945280811462808158316081139
:10009000000083128715A0112008831687005028BE
:1000A00083128711A011200883168700831208008D
:1000B000C701831608140030831208180130C704E2
:1000C000831688140030831288180130F70003105B
:1000D000F70D7708C7048316881500308312881936
:1000E0000130F700F70DF70DFC30F7057708C7046E
:1000F000831608150030831208190130F700F70D38
:10010000F70DF70DF830F7057708C7044708F80032
:100110000800A0112008831687008312A010200871
:10012000831687008312201120088316870083120C
:100130008710A010200883168700081488148815DB
:100140000815831207152011200883168700000068
:1001500083128715A01120088316870000008312E0
:1001600058207808C6008711A01120088316870040
:10017000000083128715A011200883168700000055
:10018000831258207808C5008711A0112008831613
:10019000870008108810881108118312460EF70096
:1001A000F030F70577084504F8007808C500C51F4A
:1001B000DB2883169D28C308031DE0288710E1284B
:1001C0008714A010200883168700000083120711EF
:1001D0002011200883168700000083128711A011C8
:1001E0002008831687008312440EC5000F30C50512
:1001F0004508C600292044080F39C500C60029203B
:1002000008002830AE000C30AF000130B0000630DE
:10021000B1008711A0112008831687008312871070
:10022000A0102008831687008312071120112008D0
:100230008316870008108810881108118312A011F6
:100240002008831687008312A010200883168700D9
:10025000831220112008831687000F308312BF00FD
:1002600014200130AD002D08033C031C3F2903304E
:10027000C60029200530BF001420AD0A3329023002
:10028000C60029200530BF001420AD012D08033C15
:10029000031C56292E302D07840083130008B2005A
:1002A000C3013208C4008920AD0A46298A150A1202
:1002B0002428400B5C295F294030C1006029C1011E
:1002C00001303F02C10741088038C200C301420823
:1002D000C400892008003E08073A031979290B3A1F
:1002E00003197E29063A03198629023A03198C2933
:1002F00091290130BF00C00059219629C301013066
:10030000C40089200230BF00142096290130BF00AC
:100310000230C00059219629C3011030C400892041
:1003200096290130C3003E08C400892008000B084C
:10033000B1008B13831603178C170C1400000000F8
:1003400083120313B11B8B1703170C087F39031992
:10035000EB290313B10003170D080313B2000317B1
:100360000F080313B3003108BE006B2132080317D6
:100370008D000313330803178F0003130B08B40019
:100380008B13831603178C170C14000000008312C4
:100390000313B41B8B1703170C0D0E0D7F390319B4
:1003A000EB290313B10003170D080313B200031761
:1003B0000F080313B3003108BE006B213208031786
:1003C0008D000313330803178F008D0A03198F0A5A
:1003D000031397290317031308008318F2294630E3
:1003E00084008313F701F801F901FA01C601C7017E
:1003F000C801C90145084404430442040319302AD2
:100400002030CA000310BE0DBF0DC00DC10DC60DBA
:10041000C70DC80DC90D45084902031D192A440816
:100420004802031D192A43084702031D192A4208DE
:100430004602031C2A2A4208C6024308031C430F33
:10044000C7024408031C440FC8024508031C450F9B
:10045000C9020314F70DF80DF90DFA0DCA0B022AA3
:1004600046088000840A47088000840A4808800003
:10047000840A490880000800B401B301B201B10147
:10048000B5013508093C031C8F2A06158316061191
:1004900083128610831686108312B001AF01AE015D
:1004A000AD018316061583120619512AB6013608C6
:1004B000173C031C752A86148316861003108312BA
:1004C000AD0DAE0DAF0DB00D86108316861006155E
:1004D0008312061D732A0130AD070318AE0A0319F3
:1004E000AF0A0319B00AB60A572A86148316861073
:1004F00080308312AF062D08B1072E0803182E0F87
:10050000B2072F0803182F0FB30730080318300F56
:10051000B4078610831686108312B50A412A831009
:100520003408C1003308C0003208BF003108BE00E3
:10053000C501C401C3010A30C200ED217A08B4002C
:100540007908B3007808B2007708B1003108F700E5
:100550003208F8003308F9003408FA000800B63011
:10056000F700FA01F901F8013D083E043F04400498
:10057000031DBC2AF701C92A0310F81BC82ABD0DA8
:10058000BE0DBF0DC00DFA0DF90DF80DF70BBC2A0D
:10059000F8130800410803193A2BC900450803194C
:1005A0003A2BC9070318DB2A7F30C902031C3A2BF8
:1005B00003193A2BDF2A8130C90703183A2B49085F
:1005C000F700F801F901FA014208CD00CD17430800
:1005D000CC004408CB001830C900CA014B1C082BC2
:1005E0004808FA07031CFA2AF90A031DFA2AF80A2E
:1005F0000319CA174708F907031C012BF80A031946
:10060000CA174608C300C3174308F8070318CA17D8
:10061000CA0DF80CF90CFA0CCD0CCC0CCB0C031059
:10062000C90BED2A0130F70703183A2BF81B1F2BD3
:10063000CD0DFA0DF90DF80DF70303193A2BCD1F67
:10064000302BFA0A031D302BF90A031D302BF80A50
:10065000031D302BF80CF90CFA0CF70A03193A2B8E
:100660004208CA004608CA06CA1F382BF8173E2B94
:10067000F8133E2BF701F801F901FA010800803068
:100680008318C206C701C8013E08C6004208C60654
:100690003D0803192F2CC500F70041080319382C19
:1006A000C5020319D42B031C922B4208CB00CB1795
:1006B0004308CA004408C900C8010310CB0CCA0C87
:1006C000C90CC80CC50B5C2BC61F692B47144C2CDE
:1006D000471045104716403084008313612C4712A1
:1006E000C61B7C2B451C872BCB0CCA0CC90CC80C19
:1006F000F70A0319472C872BCB1B8A2B0310C80D35
:10070000C90DCA0DCB0DF7030319472C7C2B4717D6
:10071000F42B47133E08C600C61F902BCB17402C66
:10072000CB13402C4108C500F7003D08C5023E0828
:10073000CB00CB173F08CA004008C900C80103100E
:10074000CB0CCA0CC90CC80CC50B9E2BC61FAB2BFF
:10075000C7144C2CC7104510C716443084008313AF
:10076000612CC712C61BBE2B451CC92BCB0CCA0C57
:10077000C90CC80CF70A0319472CC92BCB1BCC2B6F
:100780000310C80DC90DCA0DCB0DF7030319472C73
:10079000BE2BC717F42BC7134208C600C61FD22BA7
:1007A000CB17402CCB13402C4208CB00CB1743086F
:1007B000CA004408C900C61FE12BCB1347154C2CB7
:1007C0004711C8014510403084008313612CC61BBB
:1007D0000A2C3E08C600451CF42BCB0CCA0CC90CD5
:1007E000C80CF70A0319472CC81F052CC90A031D9A
:1007F000052CCA0A031D052CCB0A031D052CCB0CA6
:10080000CA0CC90CF70A0319472C471B892BC71BB5
:10081000CB2B292C8030CB06CB1F122C4C2C420822
:10082000C6001F2C3E08C600CB08031D1F2CCA089B
:10083000031D1F2CC908031D1F2CF701402CCB1BC7
:10084000292C0310C80DC90DCA0DCB0DF70B1F2C99
:10085000472CC61F2D2CCB17402CCB13402C410806
:10086000F7004208CB004308CA004408C900402CE6
:100870003D08F7003E08CB003F08CA004008C90009
:100880004B08F8004A08F9004908FA007F2CF701E4
:10089000F801F901FA017F2CC801C909CA09CB097D
:1008A000C809C80A031D5A2CC90A031D5A2CCA0AB2
:1008B0000319CB0A4718682BC718AA2B4719E02B36
:1008C0000F2C0008C907031C6B2CCA0A031D6B2CD4
:1008D000CB0A0319451484030008CA07031C732CB0
:1008E000CB0A0319451484030008801F803ACB0704
:1008F00003184514471A6F2BC71AB12BE72B0800B2
:10090000B801B701B601B501BC01BB01BA01B9011B
:1009100034083002031C0D2D031D9E2C33082F02BA
:10092000031C0D2D031D9E2C32082E02031C0D2DC1
:10093000031D9E2C31082D02031C0D2D31082D02A4
:10094000B1003208031C320FA72C2E08A82C2E024F
:10095000B2003308031C330FAF2C2F08B02C2F022A
:10096000B3003408031C340FB72C3008B82C300205
:10097000B40083103408C1003308C0003208BF003F
:100980003108BE00C501C4010330C300E830C20015
:10099000ED217A08C0007908BF007808BE0077080A
:1009A000BD00AF227A08B8007908B7007808B60011
:1009B0007708B5003808C4003708C3003608C200FD
:1009C0003508C100C801A230C7004430C6008030DD
:1009D000C500CA227A08BC007908BB007808BA00B2
:1009E0007708B90083143808C0003708BF003608FC
:1009F000BE003508BD003C08C4003B08C3003A08EF
:100A0000C2003908C1003F237A08B8007908B7004E
:100A10007808B6007708B500852D2D08B1022E089C
:100A2000031C2E0FB2022F08031C2F0FB302300835
:100A3000031C300FB40283103408C1003308C00017
:100A40003208BF003108BE00C501C4010330C30035
:100A5000E830C200ED217A08C0007908BF007808AC
:100A6000BE007708BD00AF227A08B8007908B70049
:100A70007808B6007708B5003808C4003708C30006
:100A80003608C2003508C100C801A230C700443092
:100A9000C6008030C500CA227A08BC007908BB00B5
:100AA0007808BA007708B90083143808C0003708FE
:100AB000BF003608BE003508BD003C08C4003B0836
:100AC000C3003A08C2003908C1003F237A08C000B9
:100AD0007908BF007808BE007708BD007A08C40016
:100AE0007908C3007808C2007708C100C801C701AF
:100AF0008030C6007F30C500CA227A08B800790865
:100B0000B7007808B6007708B5003508F700360852
:100B1000F8003708F9003808FA008A150A126E281A
:100B20003E08B63CBE00FA013F08C200BF170310E2
:100B3000BF0CC00CC10CFA0CF90CF80CF70CBE0B76
:100B4000972DC21FAE2DF709F809F909FA09F70A1E
:100B50000319F80A0319F90A0319FA0A0800040824
:100B6000B6003508B8000319CE2D3408C400330888
:100B7000C3003208C2003108C100C801C7012030DB
:100B8000C6008230C500CA227A08B4007908B300D2
:100B90007808B2007708B100B80BB52D3408C10051
:100BA0003308C0003208BF003108BE0090257A0823
:100BB000B4007908B3007808B2007708B100B41F18
:100BC000EE2DB603B616B109B209B309B409B10ADC
:100BD0000319B20A0319B30A0319B40A3B30BD0062
:100BE0009A30BC00CA30BB00BA010A30B8003508E0
:100BF0000319B60A83143130840083133408C1000A
:100C00003308C0003208BF003108BE003D08C500EF
:100C10003C08C4003B08C3003A08C200ED21780834
:100C2000F708031D262E350A38020319262E36082A
:100C30000319282E0F3938020319202E0318582EB5
:100C4000B61B582E361B282E2030542E2030B605C9
:100C5000B61E362EB6123508031DB6037708B60049
:100C60002D30BE006B213608F700B601350838027A
:100C7000031D442E7708B6002E30BE006B213608C7
:100C8000F7002030B60500303030B61E542EB612B4
:100C90003508031DB6037708B6002D30BE006B2162
:100CA0003608F700B6013030F7077708BE006B2131
:100CB00083103D08C1003C08C0003B08BF003A0853
:100CC000BE00C501C401C3010A30C200ED217A088B
:100CD000BD007908BC007808BB007708BA00B80BE3
:100CE000FA2D8A110A12EB2E043003178D00003002
:100CF0008F00031397210130BF000230C00059213B
:100D0000053003178D0000308F00031004300313EB
:100D1000B1000B08B2008B13831603178C170C1449
:100D20000000000083120313B21B8B170318C02EA0
:100D300003170C087F390313B20003170D080313C0
:100D4000B30003170F080313B4003208BE006B2171
:100D5000330803178D000313340803178F000313A0
:100D60000B08B5008B13831603178C170C140000A7
:100D7000000083120313B51B8B17B10BC02EDF2E9F
:100D800003170C0D0E0D7F390313B20003170D0866
:100D90000313B30003170F080313B4003208BE0097
:100DA0006B21330803178D000313340803178F00DA
:100DB0008D0A03198F0A03100313B10B892E033018
:100DC00084003008B4002F08B3002E08B2002D08AC
:100DD000B100B501AF2D2030BE006B212030BE0028
:100DE0006B216730BE006B218A150A128728040820
:100DF000B6003508B8000319162F3408C4003308AC
:100E0000C3003208C2003108C100C801C701203048
:100E1000C6008230C500CA227A08B4007908B3003F
:100E20007808B2007708B100B80BFD2E3408C10075
:100E30003308C0003208BF003108BE0090257A0890
:100E4000B4007908B3007808B2007708B100B41F85
:100E5000362FB603B616B109B209B309B409B10AFF
:100E60000319B20A0319B30A0319B40A3B30BD00CF
:100E70009A30BC00CA30BB00BA010A30B80035084D
:100E80000319B60A83143130840083133408C10077
:100E90003308C0003208BF003108BE003D08C5005D
:100EA0003C08C4003B08C3003A08C200ED217808A2
:100EB000F708031D6E2F350A380203196E2F360806
:100EC0000319702F0F3938020319682F0318A42F44
:100ED000B61BA42F361B702F20309F2F2030B60555
:100EE000B61E7F2FB6123508031DB6037708B6006D
:100EF0002D300C1E792F99003608F700B601350801
:100F00003802031D8E2F7708B6002E300C1E862F58
:100F100099003608F7002030B60500303030B61E94
:100F20009F2FB6123508031DB6037708B6002D3083
:100F30000C1E982F99003608F700B6013030F707DD
:100F400077080C1EA12F990083103D08C1003C08B2
:100F5000C0003B08BF003A08BE00C501C401C30180
:100F60000A30C200ED217A08BD007908BC0078087B
:100F7000BB007708BA00B80B422F8A110A12CC2F97
:100F8000033084003008B4002F08B3002E08B200EC
:0E0F90002D08B100B501F72E8A150A1292281D
:1010000003081F398300193083169900A630980011
:10101000903083129800FF30A00083161F149F1495
:101020001F159F1107309C0083138312A401A30195
:10103000A201A101A801A701A601A501AC01AB0174
:10104000AA01A9018A1101298A150230AD00FA30DE
:10105000BF008A1114208A15AD0B27280C30031706
:101060008D0000308F008A11031397218A150130FB
:10107000BF00C0008A1159218A150D3003178D0059
:1010800000308F008A11031397218A158A113C22A0
:101090008A157A08A8007908A7007808A6007708BA
:1010A000A5008A113C228A157A08A4007908A300B9
:1010B0007808A2007708A1002808B0002708AF0030
:1010C0002608AE002508AD002408B4002308B300AC
:1010D0002208B2002108B1008A11802C8A157A08F2
:1010E000AC007908AB007808AA007708A900203086
:1010F000F700F70B79287C2800002C08B0002B089B
:10110000AF002A08AE002908AD008A11742E8A1596
:101110002C08B0002B08AF002A08AE002908AD004B
:101120008A11C02F8A150230AD00FA30BF008A1133
:0C11300014208A15AD0B9528512863008F
:02400E00313F40
:00000001FF
;PIC16F877A
;CRC=8F3B  CREATED="28-Nov-21 21:57"
